:040000006F207008F5
:100004000000000000000000AA260000AC2600004A
:100014000000000084280000000000000000000030
:100024008428000084280000000000000000000074
:100034008428000000000000842800000000000064
:1000440084280000842800008428000084280000FC
:1000540084280000842800008428000084280000EC
:1000640084280000842800008428000084280000DC
:1000740084280000842800008428000084280000CC
:1000840084280000842800008428000084280000BC
:100094004212000084280000842800008428000004
:1000A400842800008428000084280000842800009C
:1000B400842800008428000084280000842800008C
:1000C400842800008428000084280000842800007C
:1000D400842800008428000084280000842800006C
:1000E40084280000842800003612000084280000C0
:0C00F400842800008428000084280000FC
:10010000397101436EC619A0397141536AC866CA74
:1001100062CC5ECE19A0397101535AD056D252D456
:100120004ED64AD826DA22DC06DE330161408282CE
:1001300041114AC026C222C406C68282B24D410184
:10014000024D924C224CB24B4101024B924A224A40
:10015000B2494101024992442244B24041018280A5
:100160003D432A876373C3029377F700BDEFADE584
:10017000937606FF3D8ABA960CC34CC30CC74CC796
:100180004107E36BD7FE11E28280B306C3408A06C3
:100190009702000096966780A6002307B700A30683
:1001A000B7002306B700A305B7002305B700A304D3
:1001B000B7002304B700A303B7002303B700A302CB
:1001C000B7002302B700A301B7002301B700A300C3
:1001D000B7002300B700828093F5F50F9396850052
:1001E000D58D93960501D58D61B79396270097021B
:1001F000000096968682E78086FA9680C1171D8F4A
:100200003E96E374C3F8A5B7EFF29FF211E583A71A
:10021000818405479AAB3DBF83A701859C438297A4
:1002200003A581842905C5BFEFF29FF011E583A7DF
:10023000818405479AAB39BF83A701859C47829784
:1002400003A581843105C5BF03A7818401E58947E2
:100250001EAB8280EFF2DFED239201841C23138416
:10026000418493F7F70795E718379377070299C307
:1002700089471CA0137707041C2011CB93E71700B4
:100280001CA083A701859C4B82972285E1B5F99B31
:10029000C5BF854613854184E38AD7FE894601455B
:1002A000E396D7FE5833B7660040938606C093772F
:1002B000F7008A07B69762079C4361876359070076
:1002C00093F707034147E39EE7FA854755BF0D675C
:1002D000F98F0567CDBFEFF21FE483A481843E8AC6
:1002E000822829E8982491476316F704138701842C
:1002F00014438547639BF602B767004083A707C591
:10030000B73600208906C207C183B697860723A0A7
:10031000070093070003239CF18423200700114961
:1003200083A78184238427010DB5C147239CF184D1
:100330001D49FDB7DE28114963F38700094963F3BE
:1003400087003E849C4C4204418022858297AA8A81
:100350000145EF0010572286AA855685EF00F0333D
:10036000A2850145EF0090599E280D67818F9EA8B8
:10037000BE283E9493070003239CF184A2A8239BEC
:10038000E18479BF83A7818483C61181B83309458D
:1003900063EFE600B42381EED62391EAEFF25FD952
:1003A000B8A783A70185DC438297014565B38280A6
:1003B000EFF21FD883A7818403A7C1844111AC3316
:1003C000184FC833029783A78184B82705C72AC668
:1003D00015E1D82305E3BC2391EF83A70185DC4712
:1003E000829783A781843245D833B8B7B833D8A76A
:1003F00041018DB30945EDBF83A78184982313770D
:10040000F70719E7983701451377F7FD98B782800A
:1004100089460945631DD710BA23631A0710D823EC
:1004200063170710EFF2DFD0D433376700401307AC
:1004300007C013F9F6F7131429003A94E20618409E
:10044000E18663DD06041377070303C601810945CE
:100450006375C90439C3BC27A9C31C4063D3060410
:1004600093F7070341476395E7021374F90F228559
:10047000EF00103E930500032285EF0030298947E5
:100480006318F90083C7F189918B99C3EF10307D10
:1004900083A70185DC4B829701456DB90D66718F8D
:1004A0006DB7C164FD140D67E58FF98F0567E391A2
:1004B000E7FE63110904B707002083C5470601451D
:1004C000EF00B0451C4071771307F7F8F98FC207AA
:1004D0000D67C183B98F617713070708D98FC207EA
:1004E000C1831CC08D661840658F758FE302D7FAF3
:1004F0001CC0D5BF4A85EF0070321C4071771307CE
:10050000F7F8F98FC2070D67C183B98F61771307B9
:100510000708D98FC207C1831CC08D661840658F3C
:10052000758F6314D7008D47A1BF1CC0C5BF8280E3
:1005300003A68184B7670040938707C0543293F5C0
:10054000F6F713972500BA97E2069843E18663DE33
:1005500006041377070303C80181094563F60509FB
:100560002E22D9E151C3382641C3EFF27FBC984314
:1005700063D20604E5769386F6FB758F42074183C6
:10058000E1761347070193860608558F420741839A
:1005900098C34146944393F60603639BC60083A722
:1005A00001859C4F8297014575B60D65698F65B7CA
:1005B00098C3CDB7F1769386F6F8758F42078566B6
:1005C0004183358FE17693860608558F4207418334
:1005D000416698C37D160D6585659443F18EE98E5D
:1005E000E38FB6FA98C3D5BF8280EFF27FB403A73A
:1005F00081841C3793E707021CB783A70185DC4F72
:100600008297014581BE03A781843E2B11E5CA2153
:100610001D8D0AAB0145828088413E958280EFF2B4
:100620003FB1B707002083C547060145EF00F02E14
:1006300083A781848827A1476318F5000567239B5A
:10064000E1844147239CE1845D151335150019B6FB
:10065000EFF21FAE03A9818437660040832706C5E9
:1006600083468900254741116385E60441641307E9
:10067000F4FFB7360020F98F9106B69786078043BE
:10068000798C060432941C202300F9001C30A3004E
:10069000F9004A20EF00B0322311A9000A2403A96F
:1006A0008184EF00D0312312A9005A2483A78184CA
:1006B000FAA383A78184054798A7FA238033631997
:1006C000070C98231377F70755E325476315E400D4
:1006D000553925E12DA015476316E404038737003B
:1006E00063590700A14703A781841CA70D3F41015F
:1006F00095B4B82365FBDA2375F7BC27E5F7B76730
:10070000004083A707C5373700200907C207C18308
:10071000BA97860723A0070013070003239CE184F0
:100720009947D1B70D476315E402B4330547638D8C
:10073000E60083A7C1842285DC4B82970D47A5473D
:10074000E303E5FA4DDD79BFDE23E5F7793D51B7E7
:100750000547E310E4FEB833E31D87FCDA2371FBA1
:100760009C3793F70702F1D74139A5B7854763173F
:10077000F700AD47E31FF4FA2539A1BF8946E31A14
:10078000D7FAE303F4FE8D47E315F4FA553391B736
:1007900019476319E40298231377F70771EBBC2319
:1007A000854603A7C1846395D7005C4FF1C389A038
:1007B00089466394D7001C53D5BF8D46639AD70AE8
:1007C0005C53EDB761E8BA2345E7D843C176938619
:1007D000F60F758FB7060200631CD70898231377AE
:1007E000F70705EFDE23C9E7B707000093878724E3
:1007F00003A781840145231907001CCF8297014577
:1008000083A78184C166FD169A2B630FD70689469C
:100810006303D50069EF21478DA88546631ED70085
:1008200003A7C184C8338145184F029731E183A7DC
:100830008184BC27D5FB2DA88946631BD702D833FA
:10084000B7660040938606C01376F700931726001C
:10085000B6979C4393168701E18663DA060293F705
:10086000070383C601816375D6001377070779D321
:1008700003A7818483A7C18408339C4B82978D474B
:10088000E310F5F883A78184254798A785B58D6681
:10089000F58FC1BF2147631BE4009C2393F7F70743
:1008A000E1FBB70700009387872099B72947E31139
:1008B000E4FC982385461377F707E31BD7FAB8279C
:1008C00045DBBA2355F7D843C1769386F60F758F6B
:1008D000C166E31FD7F803A7C184C8338145184F09
:1008E000029759F5B70700009387872211B78386CF
:1008F000070063D1060483A6C184EE2303C6C602A3
:100900002EC6324593160601C1826377E500324751
:100910009AABD6ABC932D9BBE37DB7FE6375D700BE
:1009200023A00184FDB73367C70265F7054623A0FE
:10093000C184C5B70D4798A70D67239BE1847DB39C
:10094000EFF26FFD03A48184A1441C241387E7FF09
:100950001377D70F2DC71387D7FF1377D70F49EF1B
:100960001C4C85CB0628B9C05A2863739700BA84FB
:10097000C204C180268582971E28AA890145858FD9
:100980001EA83E28A6973EA8992FAA8526864E85A2
:100990003D231E2881CF0D6781450145239BE184BE
:1009A000EF00C07513070003239CE1841E2856281E
:1009B00003A7818463EBD7008D471CA7042783A777
:1009C000818484A7A9396FF04FF899C39547F5B78B
:1009D00099471CA7B767004083A707C5B736002013
:1009E0008906C207C183B697860723A0070093062E
:1009F0000003239CD184D9B71D47A144E391E7FCB0
:100A000083A7C184DC4782975DBF03C3018137663A
:100A10000040C1650568A1680147130606C0FD15C1
:100A20001308F8F0938808086369670013650508E0
:100A3000B767004023A6A7C4828093162700B2960A
:100A40009C42ED8FB3F70701D98FB3E717019CC222
:100A50000507D9BFEFF2CFED83A7818494271387D1
:100A6000E6FF1377D70F01EFEFF0FF8683A78184AE
:100A7000982783A7818498A75D366FF0AFED19465C
:100A80002147E398C6FE94331547639CE6009823FC
:100A90001377F70719E7A8338D3F83A701859C5388
:100AA000829783A7C1849C4782972147D9B78280C8
:100AB000EFF20FE89387818B23A4F184094798A76D
:100AC000370700209306870323A6D184B7070020A9
:100AD0009387870823A8F1848327870382976FF081
:100AE0006FE7EFF26FE24111370A0020B70A0020EA
:100AF000E17923170100130A0A00938ACA01938936
:100B00000908B765004083A745C4139707014183CF
:100B10002394E186139707016357071683D78186CD
:100B20003A84BD8B2383F184938605C06396073096
:100B300003A705C093876185420741839AA39A233F
:100B400093868185137707039AA29A238D6621667F
:100B5000758F9AA303A705C0A5679387F7FB7D8FC1
:100B600083A705C0B1669386F6F8F58F8966B58FC1
:100B70001347070293160701130606085D8F518F6E
:100B8000C18223A0E5C033E7360142079384618523
:100B900013898185376600409305000241838326CF
:100BA00006C093F606036393B60EB3E73701C1663A
:100BB000C20737660040FD160D658965C1830327AE
:100BC00006C0130406C0758F698F6314B70C83D7F2
:100BD0008186C18BE1EB1C40A5691387F9F0F98F81
:100BE0001CC08D3D18401440B1679387F7F8F58F0E
:100BF00096209389F9FB33773701139636016354B6
:100C000006008566B58F962013962601635406006C
:100C10008966B58F83560900C18A99C213470701B7
:100C20008356090093F6060299C21347070221660C
:100C300093160701130606085D8F518F3766004033
:100C40002320E6C06177C18213070708558F42074A
:100C50004183832606C08355090093F60603639DEE
:100C6000B602617713070708D98FC166C2073766D6
:100C70000040FD160D65C183032706C08E20758FC9
:100C8000698F631EB70041016FF08FCB2320E6C050
:100C900039B72320F6C025B72320E6C05DBF232047
:100CA000F6C0D9BF1C40856BC207C1837C873C87D7
:100CB000139747016350070C1C401387FBF8F98F0B
:100CC0001CC0EFF0FF981840A5679387F7FB14400E
:100CD0007D8FB1679387F7F8F58F962013963601CD
:100CE00063540600B3C77701962013962601635418
:100CF00006008966B58F83560900C18A99C21347D9
:100D000007018356090093F6060299C213470702AA
:100D1000216693160701130606085D8F518F37660B
:100D200000402320E6C06177C18213070708558F72
:100D300042074183832606C08355090093F60603C4
:100D40006397B602617713070708D98FC166C20798
:100D500037660040FD160D65C183032706C08E204F
:100D6000758F698FE301B7F22320F6C0FDB723200A
:100D7000E6C0C9B73C87C207C187E3D407D81C4087
:100D80001387FBF8F98F1CC0653E1840A567938751
:100D9000F7FB14407D8FB1679387F7F8F58F9620A6
:100DA0001396360163540600B3C777019620139655
:100DB0002601635406008966B58F83560900C18AEF
:100DC00099C2134707018356090093F6060299C298
:100DD00013470702216693160701130606085D8F65
:100DE000518F376600402320E6C06177C182130728
:100DF0000708558F42074183832606C083550900A3
:100E000093F606036397B602617713070708D98F35
:100E1000C166C20737660040FD160D65C183032712
:100E200006C08E20758F698FE30FB7E42320F6C0CC
:100E3000FDB72320E6C0C9B71397270036971443A0
:100E4000C206C18274873487C206C18663DD06008C
:100E5000FD1714438A070566D6971306F6F89C43D8
:100E6000F18E14C382973C8793F70708E38B07C87A
:100E700083C76184B7660040938606C01397270036
:100E80003697FD1714438A07D29725661306F6F0A6
:100E90009C43F18E14C38297ADB1B737002005068D
:100EA000BE950586860511E282801C3118219105C8
:100EB000A207D98F239EF5FE09057D16EDB7B7373A
:100EC00000200506BE950586860511E282809C41BC
:100ED00009057D16231FF5FE9105C5BF61994205E1
:100EE0004181B767004023A8A7C48280B76700404C
:100EF000938707C00A053E951C4165771307F7984D
:100F0000F98FDD8DC205C1810CC18280B7670040B9
:100F1000938707C00A053E951C4165771307F7FBC9
:100F2000F98FC20713F70501C18319C393C70701DE
:100F300013F7050219C393C7070261771307070860
:100F4000D98FC207C1831CC1184113770703E31C63
:100F5000B7FE8280B7670040938707C00A053E95B9
:100F60001C4171771307F7F8F98FC2071397350102
:100F7000C183635407000567B98F13972501635434
:100F800007000967B98F617713070708D98FC20770
:100F9000C183C1661CC1FD160D661841758F718F26
:100FA0006313B70082801CC1CDBFB7670040938731
:100FB00007C00A053E951C4171771307F7F8F98FB2
:100FC000C2070D67C183B98F617713070708D98FEF
:100FD000C207C183C1661CC1FD160D661841758F1D
:100FE000718F6313C70082801CC1CDBFB7670040FB
:100FF000938707C00A053E951C4105671307F7E074
:10100000F98F617713070708D98FC207C1831CC105
:101010008280EFF2EF91D93F6FF0CF93B767004036
:10102000938707C00A053E951441C1671387F7FFF0
:101030009397160163DD07001C41F98F05671307BD
:10104000F7F0F98F316713070708D98F1CC1828029
:10105000B7670040938707C00A053E951C4193F788
:10106000070491CF1C4141677D17F98F056713076E
:10107000F7F0F98F21671307070CD98F1CC1828005
:10108000B767004083A707C50E058581C207C183E6
:101090003E95B73700203E95060586050CC1828037
:1010A000B767004083A707C50E058581C207C183C6
:1010B0003E95B737002091073E95060586050CC181
:1010C0008280B767004083A707C50E05C207C183AA
:1010D0003E95B73700203E9506050A218280B76706
:1010E000004083A707C50E05C207C1833E95B737E9
:1010F000002091073E9506050A218280B7670040CF
:1011000083A707C50E05C207C1833E95B7370020E8
:1011100089073E9506050CC18280B767004083A70A
:1011200007C513173500C207C183BA9737370020A8
:101130001907BA971307E00386076373B70413D739
:101140005500FD8981E57D17420741832A07A16685
:10115000558F98C30DE5B707002083C747061307CF
:10116000E0036376F70213D75700FD8B81E77D1705
:10117000420741832A07E1775D8F239EE1848280C5
:1011800013D71500858991C105072A07D9B713D749
:101190001700858B91C305072A07C5B7B7670040BD
:1011A00083A707C50E05C207C1833E95B737002048
:1011B00099073E95060508411375F53F82809357C0
:1011C00085001375F50F22055D8D8280376700401D
:1011D000F177232207C4938707F0239AF184B1673C
:1011E000938707F02320F7C401458280EFE25FF484
:1011F00032849374F507268542042E894180D135C7
:101200002286AA854A8551392685A285C53D014594
:101210006FE05FF4EFE2DFF19374F50726852E8926
:10122000B53F2A842685653DAA8522864A854139AF
:1012300022856FE03FF237050400EF10C0737300A2
:101240002030D92273002030EFE29FEE01116800B8
:1012500002C602C802CA02CC02CEEF10D008324742
:10126000B74795089387074009456300F702B7E73A
:10127000B8059387078005456309F700B777DC0257
:10128000938707C06315F7000145EF1030048545CB
:1012900037058000EF10F01205616FE0BFEBEFE261
:1012A0003FE93745000013058508EF1070520D47E0
:1012B00023AAE1866FE01FEAEFE29FE737450000CF
:1012C0001305450AEF10D05003C7218C11C71547ED
:1012D00023AAE1866FE01FE80547DDBFEFE25FE587
:1012E000011137050400EF100069B7070400054439
:1012F0003EC80808C1473ECC22CE02CAEF100061AA
:101300009307401228007C8422C623050100EF10B9
:10131000A0769307A00328007C84EF10E075056198
:101320006FE05FE3EFE2DFE0AA842E84114585459C
:10133000EF105007B1CCB766004083A706C44167E1
:101340007517F98F23A0F6C4B717014003A747808C
:10135000B716F0FFFD16758F23A2E78003A7C7809D
:10136000F9769386F67F758F23A6E78003A74780DB
:10137000B7460400558F23A2E780374702408327F2
:10138000078021C893E727002320F7806FE09FDCC8
:1013900037670040832707C4B716F0FFFD1693E7B1
:1013A0002700C207C1832320F7C4B717014003A752
:1013B0004780758F23A2E78003A7C780F9769386BD
:1013C000F67F758F23A6E78003A74780B736030013
:1013D00055B7F59B55BFEFE2BFD5EF10E0176FE0B3
:1013E0007FD7EFE2FFD49385418D0D4525359315C9
:1013F0000501C1811385418D239DB184EF10C02368
:101400000D4565366FE01FD5EFE29FD2376800408B
:10141000032708C5C1651385F5FF83D6C185B73796
:101420000020698F1386670032970607184393855B
:1014300005C00111F98D638CD500832708C593F68B
:1014400006C0E98FB29786079843D98E94C3B766D2
:10145000004083A746C413878186C207C1831EA3A9
:101460001A2383D74185138481867D8F13770720C4
:1014700009CF41671307F7DF23A2E6C49386E1850E
:10148000982205071377F70F98A21A20F98FC20741
:10149000C18763D40700EFF0CFE41E2003D7418556
:1014A000F98F93F7074089CFC1679387F7BF3767F5
:1014B00000402322F7C4B707002083A7C703829701
:1014C0001A2083D741857D8F9316270163D80600A4
:1014D0003967B76600407D1723A2E6C41A20F98F4A
:1014E00013973701635A0700BD6737670040FD1740
:1014F0002322F7C40145092B03D741851E20F98F0C
:1015000013974701635E070083A74181638F070E2E
:101510000929BD67376700409387F77F2322F7C407
:101520001E2003D74185F98F93F70710E1CFC167DC
:10153000376700409386F7EF2322D7C4032687C47A
:10154000938601869315060163DA050A9042050623
:1015500090C28C420D466375B60A032607C4FD1778
:10156000218A59EE032607C4938541867D8E37650F
:10157000004090C1138741860146130305C0A1486E
:101580009315260033886500032808000010A295F3
:101590003378F80023A005FF0506E31316FF104378
:1015A0001366160010C310437D8E2320C5C410435C
:1015B000799A10C31843F98F2320F5C43767004088
:1015C000832747C493F70740E5DFC1679387F7BFD9
:1015D00037650040C1652322F7C4130505C0814764
:1015E000FD1521481397270010103A96032606FE92
:1015F0002A9785076D8E10C3E39607FF23A0060088
:101600001D45192105616FE0FFB40945F52E11B79D
:1016100083C7218C81C7154723AAE18682801147A1
:1016200023AAE1868280828091E5854733B5A700B1
:10163000060582800945828083A781849306100273
:10164000094598231377F707631FD70094331307CF
:10165000E00F639AE60005479AAB371700001307BF
:10166000C76698CF014582800945828083A781841F
:101670000145D833854763E4E7001385A18682805E
:10168000EFE21FAB83A7818423850700B524B767EA
:101690000040856637660040938707C09386F6F062
:1016A000930506C298439107758F23AEE7FEE39B2F
:1016B000B7FE9307F00F2322F6C4EFF03FB1814548
:1016C000014523AA0186B9395145EF10C06485450B
:1016D000054589396FE01FA8EFE29FA51167034711
:1016E000770C83A78184014598B723950700EFF015
:1016F000EFFE930500200145EFF04FFFC145014586
:10170000EFF0DF80930500040145EFF07F9993052A
:1017100000080145EFF0DF960145EFF09F8FB70716
:10172000002083C547060145EFF03F9F0145EFF0DC
:10173000DF8737670040032607C0C1679386F7FF3E
:101740009317160163DF0700832707C0F58F8566AF
:101750009386F6F0F58FB16693860608D58F232021
:10176000F7C037670040832707C093F7070485C396
:10177000832707C0C166FD16F58F85669386F6F050
:10178000F58FA1669386060CD58F2320F7C081457F
:101790000945EFF0AFF59305000C0945EFF05F8EBA
:1017A000930500020945EFF06FF681450945EFF01A
:1017B0006FFA37670040832787C093F7070485C314
:1017C000832787C0C166FD16F58F85669386F6F080
:1017D000F58FA1669386060CD58F2324F7C0376753
:1017E0000040032687C0C1679386F7FF9317160151
:1017F00063DF0700832787C0F58F85669386F6F041
:10180000F58FB16693860608D58F2324F7C08145EE
:101810000D45EFF0AFED81450D45EFF02FEF93054E
:1018200000100D45EFF0DF87930500040D45EFF044
:10183000DF8E8D650D45EFF0EFF1376700408327B0
:10184000C7C093F7070485C38327C7C0C166FD16C9
:10185000F58F85669386F6F0F58FA1669386060C64
:10186000D58F2326F7C0376700400326C7C0C1675E
:101870009386F7FF9317160163DF07008327C7C01E
:10188000F58F85669386F6F0F58FB1669386060828
:10189000D58F2326F7C00145EFF02F97054723AAE0
:1018A000E1866FE03F8BEFE2BF8893858180EFE0B8
:1018B0009FD56FE03F8AEFE2BF87B7050020938591
:1018C0000515EFE05FD46FE0FF8883A78184AC3318
:1018D000914763EEB700EFE2BF85B707002093871B
:1018E00087068E05BE95EFE01FD26FE0BF860145EB
:1018F0008280828082808280B7670040054723A073
:10190000E7C423A007C4096723A207C4130707C0BD
:10191000239AE1840967130707C023A0E7C40145A0
:101920008280EFE2FF80B767004083A707C4376774
:1019300000404168C207C1838146130307C07D1878
:1019400093854191A148139626003305660008410E
:101950002E9685063375050108C2E39616FF93E6B9
:1019600007402320D7C493E61740F99BC207C183E1
:101970002320D7C493E607402320D7C4B76600408E
:1019800003A746C41377074065DF41671307F7BF16
:1019900023A2E6C44168376700408146130307C0AD
:1019A0007D18A148139626003385C50008411A9674
:1019B00085063375050108C2E39616FF93E7874055
:1019C0002320F7C4832707C4C207C18393E74700D6
:1019D0002320F7C4EFF0BF8C6FE0CFF7EFE24FF5B5
:1019E00037640040832704C4C207C183ED9BC2074C
:1019F000C1832320F4C4EFF03F8CB167938707F0D5
:101A00002320F4C46FE00FF5EFE28FF29D471384BB
:101A1000C1866303F50008C01C401547636DF700DD
:101A200011678A0713078713BA979C43828783A796
:101A3000818781E76537994711A095471CC039A078
:101A4000713F91471CC0054723ACE1866FE08FF0E2
:101A500089475CA08D47DDB75C20FD1793F7F70F32
:101A60005CA05C2093F7F70FF5F39147C1BF376790
:101A70000040832707C4C207C18393E707012320DF
:101A8000F7C495471CC0A9475CA0C9B75C20FD17E7
:101A900093F7F70F5CA05C2093F7F70FC5FB376750
:101AA0000040832707C4C207C183BD9BC207C1830F
:101AB0002320F7C499471CC023AC018641BF3737A8
:101AC00001401E27898BF5DF420541814AA7373740
:101AD00001401E27858BF5DF4A271375F50F82809D
:101AE000EFE26FE3411132C6B71401404149AA89C0
:101AF00023A824811305F00F2E84D1371305F00F8E
:101B000023AA24816D3F4E855D3F13558401453FD7
:101B1000135504011375F50F5D37135584001375C4
:101B2000F50F713F1375F40F593F324641649384AA
:101B30000480328569377D141305F00F49379317F8
:101B40008501E18763D607007D14420441806DF46E
:101B500041016FE08FDFEFE2AFDD01112A848145A3
:101B60003735014002C602C802CA02CC231E01005A
:101B7000EF10E00AB70704013EC6B70700023ECAED
:101B80006C009D4737350140FC86E08402C8231D68
:101B90000100EF10E004854537350140EF102008C3
:101BA00005616FE02FDBEFE2AFD861642A89AE8474
:101BB0001304046A1305F00F19379307F00F631825
:101BC000F5007D1465F8FD573E856FE0AFD813072B
:101BD000E00FFD57E31AE5FE01441305F00FC5358C
:101BE000B3078900050488A393170401C183E3E6C2
:101BF00097FE1305F00FE1351305F00FC935814746
:101C0000E1B7EFE2EFD205654111854511053714C3
:101C1000014002C202C402C6EF00D078C147414968
:101C20008D444C00130504807C824AC626C4EF0014
:101C3000305513040480232824019307000A7C8272
:101C40004C00E14722853EC626C4EF00705393073F
:101C500000044C007C82228591473EC6EF00505222
:101C600013058003CD3D41016FE0CFCEEFE2AFCA57
:101C7000B7170140414741112A84AE8423A8E78069
:101C800029497D1942091305F00F13590901053D32
:101C9000E31909FE1306500981451305000489352F
:101CA0008547AA89630CF500B7170140414723A86F
:101CB000E7807D594A8541016FE02FC913067008FE
:101CC0009305A01A13058004213D2A896304350772
:101CD0008149B7170140414723A8E7801305F00F5A
:101CE0006169F13B1309096A638E0906B71A01405D
:101CF000414A1306F00F814513057007D5339389C8
:101D00000A8023A849011305F00F553B1306F00F75
:101D1000B705004013059006E1332A8B23A849013B
:101D20001305F00F693B63000B127D19E31309FCE7
:101D3000795949B71305F00F59331305F00F4133A3
:101D40001305F00FAD3BAA891305F00F8D3BE3910E
:101D500029F9930965F593B91900A5BF23A849018D
:101D6000755989BFB7190140414A1306F00F8145E3
:101D700013051004B533AA8A23A849811305F00F6F
:101D80003D3B63880A127D19E31109FE71591DB7A5
:101D9000C1450A85093DB717014041472A8923A853
:101DA000E7801305F00F213B63130910148099821B
:101DB00005459C830C8498841386C187138A018807
:101DC000938981816393A6042C8437073F00C2075F
:101DD000F98F13978500A1814D8F42074183D98FD9
:101DE0008507AA072320FA0014A2930700202145A3
:101DF0002390F9008D3301C483270A001CC0E38BB4
:101E000004EA83D709009EA075B593D665008A07BA
:101E1000D58F14838565938505C0AA06ED8ED58F71
:101E200014850607198B9D82558F09078507B3977F
:101E3000E7009882230006003D8BB397E700A58357
:101E40002320FA005DB71306F00F81451305A007A4
:101E5000EFF01FC9E31405F01305F00FEFF03FC6D4
:101E60002A891305F00FEFF09FC51305F00FEFF06F
:101E70001FC51305F00FEFF09FC41305F00F23A843
:101E80004901EFF0DFC3135569400589238EA18610
:101E90001DC11306F00F814513059004EFF05FC4D8
:101EA000E30805EEB7170140414723A8E7806959C9
:101EB00011B5238E01861306F00F9305002013053C
:101EC0000005EFF0FFC1B71701404147AA8923A8D9
:101ED000E7801305F00FEFF09FBE6D59E38B09FA11
:101EE000D1BBEFE24FA33309A60001CA2A84AE8416
:101EF000371A0140C14A6315240101456FE0EFA480
:101F000083C7C187A28599E3931594001306F00F48
:101F100013051005EFF0DFBC01C9B71701404147B9
:101F200023A8E7807D55D9BF930500202685EFF0D3
:101F30009FC793070A8009C5414798CB79557DBF54
:101F400023A857011305F00FEFF07FB79384042007
:101F5000050455B7EFE24F9B330AA60009CA2A844D
:101F60002E89E169130B0020954B6315440101454F
:101F70006FE00F9D83C7C187A28599E393159400F5
:101F80001306F00F13058005EFF09FB501C9B717D1
:101F90000140414723A8E7807D55D9BF9384196A42
:101FA0001305F00FEFF0BFB19307F00F6307F502D1
:101FB000FD14FDF4FD54B7170140414723A8E78005
:101FC0001305F00FEFF0BFAF99E4130909200504E2
:101FD00069BF8144CDB7795561BF1305E00FEFF0BC
:101FE0001FAE8144B307990088238504EFF03FAD0D
:101FF000E39A64FF1305F00FEFF07FAC1305F00FC9
:10200000EFF0FFAB1305F00FEFF07FAB7D89F954D4
:10201000E31375FB9384196A1305F00FEFF03FAAE1
:102020009307F00FE307F5FAFD14FDF4F55461B7DB
:10203000EFE20F909387F1899C231384F189858BBC
:1020400089CBC1450945EFE07FEC1C2093F7E70FF2
:102050001CA01C20898B89CB85650D45EFE09FEF87
:102060001C2093F7D70F1CA06FE0CF8E138741D3AE
:10207000143B93874188E20694C3342B9043C206F5
:10208000B29694C3343B9043A206B29694C3904355
:10209000542BB29694C3742B9387C188A20694C321
:1020A0009443783B369798C39843260798C3239464
:1020B0000188A38E0188238E0188238A018882806B
:1020C000EFE20F8703C641D3130750059386F189CA
:1020D000631DE630938741D39033130730056316B1
:1020E000E630B023130720046311E630B033130742
:1020F0003004631CE62ED0231387018910A3D0334C
:10210000AC3710B3F023E20530A3F03330B31386BD
:10211000C1880CC2AC2708421387C188C205AA95A2
:102120000CC28C370842A205AA950CC208428C2723
:10213000AA950CC2104209CA0386C700635C060454
:1021400090221366160090A2902293053002136627
:10215000460090A2F0376303B61063EBC508C9458B
:102160006309B60C63ECC5021385D1899385C189D7
:1021700013874189630606240D48630A0621154723
:10218000A38EE18813070002238EE1880547238A86
:10219000E188B9A490221366260075B7ED4563085F
:1021A000B60AF9456305B60AE945E31AB6FC83C6E3
:1021B000E189858A638106161043B14663F3C60040
:1021C00014C311668146130606160C4363EBB61260
:1021D000138781891443E182D4A31443C182D4B309
:1021E00014431843A182F4A3F8B323A0F18A2DA0CD
:1021F0009305A002630CB60063E2C502930550028A
:102200006306B60A93078002E31BF6F683C7E189EB
:10221000858B63820710993D6FD0DFF39305F00241
:102220006307B6029305A0056304B6109307E002A6
:10223000E1BF14439307400263F3D7001CC3B70701
:1022400000209387C70A2380070023A0F18AA38E6A
:102250000188238E0188238A01887DBF83C6E18996
:10226000858AD5CA1043B14663F3C60014C311660C
:1022700081461306C6160C4363E0B60213878189B4
:102280001443E182D4A31443C182D4B3144318434A
:10229000A182F4A3F8B355BF3305D6000821B38556
:1022A000D700850688A193F6F60FF1B783C6E189BA
:1022B000858AB5C21043A14663F3C60014C38146A4
:1022C000138601830C4363E4B602138781891443A8
:1022D000FD16E18294A31443FD16C18294B3144306
:1022E0001843FD16A1827D17B4A3B8B3B9BF330557
:1022F000D6000821B385D700850688A193F6F60F8E
:10230000D1B73305D6000821B385D700850688A14B
:1023100093F6F60F5DBD0947A38EE1881307A0036E
:10232000238EE1880547238AE188EFF07FD0EDB561
:10233000903B9306F0036316D6041043C14663F343
:10234000C60014C311668146130606150C4363E0EC
:10235000B602138781891443E18294A71443C18292
:1023600094B714431843A182B4A7B8B7BDBD3305D1
:10237000D6000821B385D700850688A193F6F60F0D
:10238000F1B71547A38EE1881307000251BF9306EA
:10239000000796A31421A381070023A40700B4A378
:1023A000B706000AD4C39421A38607002397070029
:1023B000D4A72398070023A0F18A23000700A9BD12
:1023C00083C7E189858B91C7230005002380050021
:1023D000EDB789471CA19307A0039CA185471CA3C7
:1023E0009C2293E717009CA289B71547A38EE1882A
:1023F00013070002238EE1880947238AE1889C2283
:1024000093E717009CA29C2293E72700E9BFEFD235
:102410003FD21387A1819387C1881623904363F627
:10242000C60212231623984342064182158F98C391
:1024300083A5018A13052008EFE05FDB9305000305
:102440000945EFE0BFAC6FD0FFD0904323A0070059
:102450009387F18998231377E70F98A3D1BFEFD221
:102460003FCD37574253A38F0188130757359387C2
:1024700041D398C313870189142323A40700354649
:10248000D4A31433938541D313052008D4B3342344
:102490003833F4A3F8B303C74189D8A7EFE01FD5B9
:1024A000930500030945EFE07FA66FD0BFCAEFD2C6
:1024B0003FC8938781889E2313848188C207C18384
:1024C0008DEB03A54188054693854193EFF07FA1ED
:1024D0000DC10D47A38EE1884547238EE18805474E
:1024E000238AE1889387F18998231377E70F98A3CC
:1024F00095A09384A1811E208E2092201389419360
:10250000B385F50213052008CA95EFE03FCE930589
:1025100000030945EFE09F9F1E208507C207C18386
:102520001EA09386C188922098429387C188118FFC
:1025300098C216209220130700203347C702631960
:10254000D70023100400138741881443850614C361
:102550009C43C9DB6FD01FC0EFD29FBD9387F18929
:102560009823058B09CF03C731D4930780026315E5
:10257000F700353F6FD01FBEEFF07FE9E5BF9C232A
:10258000918BEDDBEFF0BFEDF5B7EFD2DFB813893C
:1025900081881384A181835609001E201220B387ED
:1025A000D702138741B3AA859384C1883305F70006
:1025B000EF00B005835709008507C207C1832310C8
:1025C000F9001A209C40998F9CC0035709001620DF
:1025D00093070020B3C7D702639CE7029387418823
:1025E00088430546938541B3EFF0DF961384418815
:1025F00015C10D47A38EE1883147238EE188054739
:10260000238AE1889387F18998231377D70F98A3BA
:102610006FD0BFB39C40138A818889EB9387F1897F
:1026200098231377D70F98A3EFF07FE323100A00C6
:102630001C4085071CC0E9BFEFD29FAF9387F1898B
:102640009C23898B89C7EFF05FF46FD0BFB0FD4743
:10265000E39DF5FE2A881384F1898147938441D351
:102660007D47B306F8009022B386F400850790A258
:10267000E399E7FEEFF0DFA41C20898BF9F71C201B
:10268000858B81CFF834930780026315F700EFF054
:102690001FE265BFEFF0BFD74DBF83C7418993F7F6
:1026A000F70FC5F7EFF0BFDB4DB701A0B707EFBEDF
:1026B00037E700E0938707083CC701A0EFD25FA788
:1026C000411105457D26052A25257165130505203F
:1026D000B52D83A5C1813745000013058517EF008F
:1026E000E07D3745000013058518EF00700EEFF010
:1026F0004FD19305A100680002C623150100EFF039
:10270000EFD601C9374500001305451CEF00500CFA
:1027100001A02C85B707100037450000B3D7B702DA
:10272000B2451305851DB3D5F502EF002079324778
:1027300023ACE18883C7E18993E71700238FF188F1
:10274000EFE09FB0EFE0CFB6EFE05FB901A0B717C1
:1027500002409843B706FFF01367170098C3D843A9
:10276000758FD8C39843B706F7FEFD16758F98C3CB
:102770009843B706FCFFFD16758F98C3D843B7067C
:1027800001FFFD16758FD8C337079F0098C7B7465E
:10279000024003A706801367070123A0E680D84301
:1027A000B706C1FFFD16D8C3D843D8C3D8431367B3
:1027B0000740D8C3D843758FD8C3D843B706100095
:1027C000558FD8C39843B7060001558F98C39843D7
:1027D00093166700E3DD06FED843B7160240719BEF
:1027E000D8C3D84313672700D8C32147DC42B18B35
:1027F000E39EE7FE8280B7160240DC421146B18BB1
:102800001387C1816385C70021466388C702B71754
:102810007A00938707201CC3B7170240DC439183DB
:1028200093F6F700B70700209387070DB697942318
:102830001C43B3D7D7001CC38280DC42D44241661C
:10284000C983BD8BF18E890745466393C700C9478D
:1028500081EEB746024083A60680C18A89CEB716AC
:102860007A009386062021A8B7160240D442139618
:10287000E600E35606FEB7163D0093860690B38742
:10288000D70251BF01A097E1FF1F9381A10C17212F
:10289000002013012177172500001305659F97D5A8
:1028A000FF1F938525761386018463FAC500832272
:1028B000050023A0550011059105E3EAC5FE138527
:1028C0000184938581D56377B50023200500110528
:1028D000E36DB5FEFD42739002BC8D427390428061
:1028E000930280087390023097D2FFFF9382C271E7
:1028F00093E2320073905230EFF07FE597020000D0
:10290000938202DC73901234730020305841032804
:1029100005004C4537060140930706403E97934615
:10292000F8FFB1C583250640F58D2320B640D0437E
:10293000F18ED4C31443B3E6060114C31841904783
:102940009346F7FF758E90C7D047F18ED4C71445D4
:1029500041466399C6009447D98E94C7D447558F92
:10296000D8C78280B6979443558F98C382801C4302
:10297000F58F1CC38280B707014023AAA74082803D
:102980009C4513F7070113F8F70001C7D8413368D6
:10299000E80037270240145B3707000F758F4DEBB7
:1029A00085462382D18A371701406315E5009A21B5
:1029B00035839AA18E2113F7F50F39C3184181464B
:1029C000854E3D4F930F800293028004214E339633
:1029D000DE00B3F8C5006311160393982600331385
:1029E0001F011343F3FF3377E300B318180133E7F4
:1029F000E8006397F70750C98506E39AC6FD18C13A
:102A00001307F00F6375B70454412146854E3D4FBF
:102A1000930F800293028004414EB398CE0033F7A7
:102A200015016392E8021317260001173313EF0014
:102A30001343F3FFB376D3003317E800D98E6395C1
:102A4000F703232A15010506E319C6FD54C1828048
:102A500037170140E310E5F603C7418A21DF81BF44
:102A6000E39C57F810C949BFE39F57FC2328150181
:102A7000D9BF23A4A18A828003A7818A8547142114
:102A80006310F7021C31639CE7023C21960793E731
:102A900007F837E700E093F7F70F36972300F74082
:102AA000054793D756003317D700544189CE9387F3
:102AB00007048A07B7E600E0B69798C38280EDF373
:102AC0003C219607F9B793870706E5B7B717024089
:102AD000D843B70640FFFD16758FD8C3D8435A05B3
:102AE000598DC8C38280371702405C439146B18B31
:102AF0006385D700A1466382D706B7177A0093870C
:102B000007201CC1371602405C423707002013071C
:102B1000070E9183BD8BBA9794231C41B3D7D7007E
:102B20005CC15442A1829D8ABA969422B3D6D70042
:102B300014C55442AD829D8A36971823B3D7E70057
:102B40005CC55842398393763700138701823697E4
:102B50001823B3D7E7021CC982805C435843C1667F
:102B6000C983BD8B758F8907C5466393D700C94755
:102B700001EF3747024003270780418B09CF371702
:102B80007A001307072021A83717024058439316ED
:102B9000E700E3D606FE37173D0013070790B3871B
:102BA000E70285B799C5371702401C4F5D8D08CFE6
:102BB0008280B7170240984F1345F5FF798D88CF73
:102BC000828099C5371702405C4F5D8D48CF828067
:102BD000B7170240D84F1345F5FF798DC8CF8280D3
:102BE0001A218D6793870704B6217D8F9E21D58F8B
:102BF000D621D58FF621D58F9625D58FB625D58FA1
:102C0000D625D58FF625D58FD98F1EA15A2DFD77C4
:102C10009387F77FF98F5EAD9E291EA982801E21C2
:102C200089C593E707041EA18280C207C18393F779
:102C3000F7FBC207C183C5BFEFD28FCF1629F57747
:102C4000FD17F58FF621DA257971D58F1EA9562546
:102C5000FD779387379FF58FD6212A842EC6D58F8F
:102C60009625D58FB625D58F5EA55E29C207C1836F
:102C700093F7F7CFD98F5EA96808EFF0DFE6B74783
:102C8000014093870780B245631EF402A25765474F
:102C9000B387E7029841930640060A07B3D7E702D5
:102CA00033D7D702B3F7D7021207920793872703C8
:102CB000B3D7D702BD8BD98FC207C1831EA445618C
:102CC0006FD04FC99257E1B791C55E250967D98F7B
:102CD0005EA582805A25F977FD17F98FD5BF93F548
:102CE000F51F4EA182800A216D8D3335A0008280B0
:102CF00083A7C18137177A0013070720B3D7E702EC
:102D000093F7F70F2387F18A1307803EB387E70213
:102D10002396F18A8280B7F700E0D8438146799BF9
:102D2000D8C303D7C18A3306A70290CBD4CB98432C
:102D30001367070198C398431367170298C3D843D2
:102D4000058B75DF9843799B98C38280EFD24FBE85
:102D50002A841165011185451105EFF0BFE4930741
:102D600000207C82371501408D473EC44C00E1476E
:102D7000130505803EC6EFF0BFC022C837440140AE
:102D8000B70708000C08130504803ECC02CA231EB6
:102D90000100EFF07FEA854513050480EFF0DFF2D4
:102DA00005616FD02FBBEFD20FB7B7440140AE899A
:102DB0003289014493840480634524014A856FD09D
:102DC000CFB8930500042685EFF0FFF17DD9B387D6
:102DD00089008385070026850504C205C181EFF0BF
:102DE0001FF0D9BF138741821C43938681D53E953E
:102DF000636BD500B75600209386068063E5A60076
:102E000008C33E858280FD57EDBFB3C7A5008D8BFB
:102E10003307C50081E78D4763EDC700AA87637E4E
:102E2000E508942185078505A38FD7FEE3EBE7FE30
:102E3000828093763500AA8789CA94218507850503
:102E4000A38FD7FE93F63700C5BF9376C7FF1386CF
:102E500006FE63F0C70683A3050083A2450083AF87
:102E6000850003AFC50083AE050103AE450103A392
:102E7000850183A8C5019385450223A0770003A897
:102E8000C5FF23A2570023A4F70123A6E70123A827
:102E9000D70123AAC70123AC670023AE170193878C
:102EA000470223AE07FF75B790419107910523AE06
:102EB000C7FEE3EBD7FEE3E6E7F6828039713EDA40
:102EC0002ED232D436D63AD842DC46DE938781827F
:102ED00022CC804326CA06CEAA8409C41C4C99E39E
:102EE0002285FD290C4454102686228536C6EF0023
:102EF0009013F2406244D24421618280011126CABB
:102F00004AC806CE22CC4EC652C4AA842E8901C518
:102F10001C4D91E3F1219C4C804499E32685C92105
:102F2000971700009387072F631BF402C0405E24AD
:102F3000A18BB1C71C48A1C7FD59294A1C44834530
:102F40000900FD17B1E91CC463DD07062286A94507
:102F500026856920FD576308F502294535A0971796
:102F600000009387272D6314F4008044C9B7971796
:102F7000000093872728E31CF4FAC0444DBFA285C4
:102F80002685192A55D97D55F2406244D2444249DA
:102F9000B249224A056182801CC4050963D7070033
:102FA000184C63CAE700638845011C40138717006B
:102FB00018C08CA361B7228626850D20E31035F951
:102FC000D9B71C401387170018C0294798A371B7B9
:102FD00093878182AA8588436FF05FF2011122CC2A
:102FE00026CA4AC806CE4EC6AA842E89328401C596
:102FF0001C4D91E3F526971700009387A7216317CF
:10300000F406C0401C4C1CC45E24A18BC1C31C48E8
:10301000B5CF1C4808409379F90F1379F90F1D8D2E
:103020005C486346F500A2852685692C25E51C448D
:103030000505FD171CC41C401387170018C023800A
:1030400037015C486388A7005E24858B81CBA94744
:103050006316F900A2852685B5240DEDF240624481
:103060004A85D2444249B2490561828097170000DF
:103070009387471C6314F400804469B797170000D6
:1030800093874717E310F4F8C044ADBFA2852685A7
:10309000212041D17D59D9B741119387818226C220
:1030A000844322C44AC006C62A892E8489C49C4C03
:1030B00099E326853526971700009387A715631B8C
:1030C000F402C0400317C40093170701C18393F6AD
:1030D0008700ADEA93F6070195EEA5472320F90096
:1030E000136707045AA47D55B24022449244024912
:1030F00041018280971700009387C7136314F4007F
:103100008044C9B7971700009387C70EE31CF4FAF1
:10311000C0444DBF918B9DC34C5889C9930744044B
:103120006384F5004A85292B232A04025E24232286
:10313000040093F7B7FD5EA41C481CC05E2493E70F
:1031400087005EA41C4899EB5E241307002093F7C8
:1031500007286385E700A2854A8591295E2413F735
:1031600017001DC35C4823240400B307F0401CCCA7
:103170001C480145B5FB8317C40013F707082DD77A
:1031800093E707045EA485B7898B014791E358480C
:1031900018C4F9BFDE25011122CC26CA06CE4AC8C2
:1031A0004EC613F78700AA842E8479EBD841634D6D
:1031B000E000B841634AE0000145F2406244D24475
:1031C0004249B2490561828058547DD703A9040061
:1031D0009396370123A0040063DB060670485E2443
:1031E000918B99C75C401D8E5C5899C33C401D8EE5
:1031F0005C540C50814626858297FD575A24631DE6
:10320000F5009440F54763E8D706B70740208507E7
:10321000B3D7D700858BA5C31C48232204001CC04C
:103220009317370163D80700FD576314F5009C40DE
:1032300091E368C84C5823A02401BDDD93074404E2
:103240006384F5002685ED2E232A0402B5B70C50C1
:103250000146854626850297FD572A86E311F5F833
:103260009C40B5DF75476385E70059476393E704E2
:1032700023A0240191B7136707045AA47D5535BFD5
:1032800083A90501E38A09F203A905008D8B23A018
:10329000350133093941014791E3D84918C4E35D49
:1032A00020F11C540C50CA864E86268582976347AF
:1032B000A0005E2493E707045EA4C9B7AA99330966
:1032C000A940F1BF9C49A5C3011122CC06CE2A8496
:1032D00011C51C4D81E72EC62122B245971700006B
:1032E000938747F3639CF5004C408397C5009DC7C7
:1032F00022856244F24005616FF0DFE99717000014
:10330000938747F36394F5000C44C5B79717000003
:10331000938747EEE39BF5FC4C44C1BFF240624407
:1033200001450561828001458280411122C406C6A3
:103330002A844EA572A523200500232205002324FC
:1033400005002322050623280500232A0500232C37
:103350000500214681451305C505EFC07FE097179D
:103360000000938787B25CD0971700009387A7B4BB
:103370001CD497170000938787B85CD49717000078
:103380009387E7BA00D01CD8B24022444101828022
:1033900097050000938545F391AA411126C21306B3
:1033A00080069384F5FFB384C4024AC02E8922C4E8
:1033B00006C6938544070D2E2A8401CD23200500DF
:1033C00023222501310508C4138684068145EFC0F8
:1033D0003FD92285B2402244924402494101828071
:1033E0001C4DA5E7411106C622C49707000093872C
:1033F00067FA1CD5938781839C43232405042326E5
:103400000504232805046314F50085471CCD2A8490
:10341000352848C022851D2808C42285052848C4AF
:10342000484001469145EFF05FF008440546A54548
:10343000EFF0BFEF48440946C945EFF01FEF85475D
:103440001CCCB2402244410182808280411193878A
:10345000818326C284434AC006C69C4C22C42A8962
:1034600081E72685EFF0DFF7938484048044DC4015
:10347000FD1763D607009C40B9CF8440C5BF031732
:10348000C40039E7C17785072322040623200400FE
:1034900023220400232404005CC423280400232ADC
:1034A0000400232C0400214681451305C405EFC008
:1034B0003FCB232A0402232C0402232404042326C2
:1034C00004042285B2402244924402494101828090
:1034D0001304840671BF91454A85EFF01FEC88C044
:1034E00049FDB1472320F9000144E1BF797122D49D
:1034F0004AD052CC56CA5AC85EC606D626D24ECE3E
:103500002A8AAE8A130485040149054BFD5B09EC48
:10351000B25022544A8592540259F249624AD24A20
:10352000424BB24B45618280044483294400FD191B
:1035300063D409000040E1BFDE24637BFB00839776
:10354000E40063877701A6855285829A3369A900D2
:1035500093848406E9BF1971A6DAAE848395E500E9
:10356000A2DC86DE328463DB0500DE2423A00600B5
:1035700093F7070885E7930700401DA0300836C67B
:10358000EF007020B246E34205FE7247BD67F98F37
:103590007977BA9793B717009CC2F1BF93070004DD
:1035A0001CC0F6506654D654014509618280DE2560
:1035B000011122CC06CE26CA4AC8898B2E8489CF17
:1035C000930774041CC01CC885475CC8F240624461
:1035D000D24442490561828074003000AA84EFF031
:1035E0009FF7A2452A892685012219E98317C4007D
:1035F00013F7072061FFF19B93E727005EA4C9B78B
:1036000097070000938707D99CD45E2408C008C898
:1036100093E707085EA4A2475CC8B24781CF831531
:10362000E4002685EF00D01811C55E24F19B93E7D6
:1036300017005EA45E243369F9002316240179B7CC
:10364000DDC183A7C5FF411122C406C626C213846B
:10365000C5FF63D307003E94AA84EF00301C938714
:10366000018B9C4381EF2322040023A8818A2244FA
:10367000B2402685924441016F00701A637EF400C7
:1036800014403307D4006396E7009843DC43369731
:1036900018C05CC0D9BFBA87D84319C3E37DE4FE24
:1036A00094433386D700631F86001040B29694C3BC
:1036B0003386D700E31DC7FA10435843B29694C32C
:1036C000D8C375B76375C400B1479CC04DB71040EF
:1036D000B306C4006316D70014435843B29614C00F
:1036E00058C0C0C369B78280011126CA93843500CF
:1036F000F19806CE22CC4AC84EC6A104B14763F366
:10370000F404B14463E2B4042A89EF0030119387D2
:10371000018B98433A8439E09387418B9C4391E72E
:1037200081454A85252F23AAA18AA6854A853D275A
:10373000FD5963193507B1472320F9004A85EF0089
:10374000100E29A0E3D004FCB1471CC10145F24092
:103750006244D2444249B249056182801C40858F4F
:1037600063CF0702AD4663F6F6001CC03E9404C06A
:1037700031A05C406313870223A8F18A4A85EF00D9
:10378000100A1305B4009307440061993307F5400C
:103790005DDF3A94898F1CC05DBF5CC3C5B72287CB
:1037A000404095BF130435007198E30285FCB305D2
:1037B000A4404A856525E31C35FBB5BF1C46FD17B3
:1037C0001CC663DA0700184E63C5E700A947639477
:1037D000F5006FF0BF801C422E851387170018C2BA
:1037E0008CA38280011122CC26CA4AC84EC652C47C
:1037F00006CE2A89AE893284B304D6007D5A63147A
:103800009400014509A80C204E864A85EFF01FFB65
:103810000504E31645FFF2406244D2444249B249EE
:10382000224A05618280357122CD26CB4AC94EC716
:1038300006CF52C556C35AC1DEDEE2DCE6DAAA89FB
:10384000AE843289368409C51C4D99E3EFF05FB927
:10385000971700009387079C6398F40C83A4490092
:10386000DE24A18BE5C79C48F5C393070002A3049F
:10387000F1029307000302D22305F10222C6930B43
:103880005002971A0000938AEA9C054C294B4A84FF
:103890001C2099C3639F770DB30C2441638E0C00E9
:1038A000E6864A86A6854E85EFF0DFF3FD57630F67
:1038B000F51C9256E69636D21C206389071CFD57EC
:1038C0001309140002C802CE3ECA02CCA3090104A7
:1038D00082D483450900154656852D271304190007
:1038E000C24751E913F7070109C713070002A309EB
:1038F000E10413F7870009C71307B002A309E10425
:10390000834609001307A002638FE606F2474A8444
:1039100081462546182093051400130707FD637799
:10392000E60AB5CA3ECE85A8971700009387879010
:103930006395F40083A4890025B797170000938747
:10394000678BE39FF4F083A4C90019BFA6854E8559
:10395000EFF08FF419D97D55FA406A44DA444A49A8
:10396000BA492A4A9A4A0A4BF65B665CD65C0D61F4
:103970008280050431BF330555413315AC00C98F32
:103980003EC82289B9B7324793064700184336C666
:10399000634707023ACE18209307E002631DF7043D
:1039A00018309307A002631BF702B247090413877C
:1039B00047009C433AC663C107023ECA2DA833079D
:1039C000E04093E727003ACE3EC8F1B7B3876703DC
:1039D00085462E84BA973DBFFD57C5B7050402CA78
:1039E000814681472546182093051400130707FDDB
:1039F0006374E606F9F20C200D4617150000130556
:103A0000E585092511CD97170000938727851D8D22
:103A100093070004B397A700424505045D8D2AC8AB
:103A20000C2019461715000013058583130914008F
:103A30002304B102C12B35C197C7FFFF9387875C71
:103A400095E74247B2471377071009CF91073EC663
:103A50009257D2973ED225BDB387670385462E8401
:103A6000BA9751B79D07E19BA107D5B77800970694
:103A70000000938666D726860C084E8597000000C6
:103A8000E7000000FD572A8AE314F5FCDE2493F7D3
:103A90000704E39207EC1255C1B5780097060000C1
:103AA000938686D426860C084E85012AE1BF79715B
:103AB00056CA9C49BA8A984522D426D24ECE52CCB8
:103AC00006D64AD05AC85EC6AA892E84B284368ADF
:103AD00063D3E700BA879CC00347340419C3850742
:103AE0009CC01C4093F7070281C79C4089079CC07B
:103AF0000329040013796900631A0900130B940168
:103B0000FD5B5C449840998F634CF9041C408346EC
:103B1000340493F70702B336D000A5EB1306340440
:103B2000D2854E85829AFD576303F5041C401146E9
:103B30009840998B544481446397C700B384E6400E
:103B400063D3040081441C4418486354F700998FE0
:103B5000BE94014969047D5B63982405014509A869
:103B600085465A86D2854E85829A631E75017D559B
:103B7000B250225492540259F249624AD24A424BFC
:103B8000B24B456182800509ADBF3307D4001306EF
:103B90000003A301C7040347540493871600A297A8
:103BA0008906A381E7049DBF85462286D2854E857E
:103BB000829AE30E65FB050945B7797122D426D2B6
:103BC0004AD04ECE06D652CC56CA5AC8B689942D83
:103BD000930790063289AA842E8413863504638D58
:103BE000F60263E2D706930780056386F61863ED55
:103BF000D700638E062093073004638EF60A930A7B
:103C000024042301D404C9A0930730066385F60A6F
:103C100093074006E395F6FE1C40084393F6070819
:103C200093054500C5C61C410CC363D807001307A4
:103C3000D002B307F040A301E40497060000938686
:103C4000A662294765A8930700076382F61663E515
:103C5000D7029307E0066389F6189307F006E3900E
:103C6000F6FA0C401C4313F8050813854700630758
:103C7000080608C39C4385A893075007E383F6FE14
:103C8000930780076389F61293073007E399F6F6E6
:103C90001C43D04181459386470014C383AA070083
:103CA00056858D2601C53305554148C05C401CC86A
:103CB000A301040461A81C43930A240493864700CB
:103CC0009C4314C32301F4048547D5B793F6070436
:103CD0001C410CC3B9DAC207C18781BF93F5050443
:103CE00008C3C9D99E231307F0066387E60E97061B
:103CF0000000938666572947A30104044C400CC476
:103D000063C5050008406D9908C099E3B28A89CD62
:103D1000B28AB3F5E702FD1AB6958C212380BA006A
:103D2000B3D5E70263F0E70CA147631EF7001C4020
:103D3000858B91CB58401C4863C7E700930700036D
:103D4000A38FFAFEFD1A3306564110C84E87CA8665
:103D50007000A2852685EFF09FD57D5A631D450B27
:103D60007D55B250225492540259F249624AD24AC5
:103D7000424B45618280A382D5049706000093865A
:103D8000A64E0C40084313F805081C411105630DAD
:103D9000080208C313F7150001C793E505020CC01C
:103DA0004147B9FB0C4093F5F5FD0CC0B1B79C4100
:103DB00093E707029CC193078007A302F4049706C8
:103DC00000009386A64B75BF13F8050408C3E303F0
:103DD00008FCC207C1837DBF970600009386C648D2
:103DE000214719BFAE8735B794411C43CC4913F81E
:103DF0000608138547006306080008C39C438CC36C
:103E000039A008C393F606049C43F5DA8EA3232851
:103E10000400B28A25BF14485686CA852685829931
:103E2000E30045F51C40898B8DE7B2474844E35ACF
:103E3000F5F23E853DB785465686CA852685829928
:103E4000E30065F3050A5C443247998FE345FAFEC7
:103E5000E9BF014A930A94017D5BF5B7411122C481
:103E60002A842E8523AA01D406C6EFE0BFF7FD57AA
:103E70006317F500938741D59C4391C31CC0B240A2
:103E8000224441018280411122C42E848395E500A1
:103E900006C67922634905007C48AA977CC8B240CF
:103EA0002244410182805E247D777D17F98F5EA4D4
:103EB000FDB7DE25011122CC26CA4AC84EC606CE61
:103EC00093F70710AA842E843289B68991C7839507
:103ED000E5008946014609225E247D777D17F98F2A
:103EE0005EA48315E4006244F240CE864A86B2495D
:103EF00042492685D244056125A8411122C42E8459
:103F00008395E50006C6C928FD575A24631AF500B3
:103F1000FD77FD17F98F5EA4B240224441018280F3
:103F20008567D98F5EA468C8C5BF8395E50005A8DD
:103F3000411122C42A842E85B285368623AA01D453
:103F400006C6EFE05FE6FD576317F500938741D59E
:103F50009C4391C31CC0B240224441018280411164
:103F600022C42A842E8523AA01D406C6C520FD5763
:103F70006317F500938741D59C4391C31CC0B240A1
:103F8000224441018280411122C42A842E85B285B7
:103F900023AA01D406C6C920FD576317F5009387ED
:103FA00041D59C4391C31CC0B24022444101828050
:103FB000411122C42A842E8523AA01D406C65D207D
:103FC000FD576317F500938741D59C4391C31CC0EF
:103FD000B240224441018280411122C42A842E85AC
:103FE000B285368623AA01D406C65920FD57631729
:103FF000F500938741D59C4391C31CC0B240224435
:104000004101828093F5F50F2A966314C50001459E
:1040100082801C21E38EB7FE0505C5BF82808280A9
:10402000411122C42A842E85B285368623AA01D462
:1040300006C6A920FD576317F500938741D59C4319
:1040400091C31CC0B2402244410182809307800585
:1040500023AAF1D47D5582809307800523AAF1D449
:104060007D5582809307800523AAF1D40145828083
:104070009307800523AAF1D47D558280930780059C
:1040800023AAF1D47D55828075736220656E7465B4
:1040900072206C6F7720706F776572206D6F64652A
:1040A0000D000000757362206C65617665206C6F91
:1040B0007720706F776572206D6F64650D0000006A
:1040C00009022000010100803209040000020806F4
:1040D000500007058202400000070503024000006F
:1040E0001201000200000040861A10FE01000102C9
:1040F0000001000016034300480032003000780041
:1041000055004400690073006B0000001A0357005B
:1041100043004800330032000000000000000000AF
:1041200000000000000000000E037700630068003C
:104130002E0063006E0000002E1A0000401A0000DE
:10414000501A0000581A00006E1A00008C1A000065
:10415000000E0000000000080000003F0000020008
:104160000B0000080000003F0000020000000008F3
:10417000000000400200020053797374656D436CC7
:104180006B3A25640D0A00005553424420554449BA
:10419000534B2053504920534420436172642052B2
:1041A00065616465720D0A53746F72616765204DB5
:1041B000656469756D3A205350492053442043414A
:1041C00052440D00534420696E6974206661696C25
:1041D00065642E0D0000000053442043617061634C
:1041E0006974793A20256C75204D420D0A00000053
:1041F00000000000000000000000000000000000BF
:1042000000000000000000000000000000000000AE
:10421000000000000000000000000000000000009E
:10422000000000000000000000000000000000008E
:10423000000000000000000000000000000000007E
:10424000000000000000000000000000000000006E
:10425000232D302B20000000686C4C0065666745FC
:104260004647000030313233343536373839414231
:104270004344454600000000303132333435363790
:0C4280003839616263646566000000006C
:10428C00AE0A0000D6130000AE0A0000AE0A000011
:10429C00AE0A0000AE0A0000AE0A0000AE0A000032
:1042AC00AE0A0000E2130000AE0A0000AE0A0000E5
:1042BC00AE0A0000AE0A000080160000D8160000FE
:1042CC00F6180000F21800003816000068160000FE
:1042DC0028160000A6180000B6180000CA18000026
:1042EC0000000000400000007C01002004000000E1
:1042FC00284100000E000000F440000016000000F1
:10430C000C4100001A000000AE0A0000101600005C
:10431C00AE0A0000AE0A0000AE0A0000F41800005D
:10432C00AE0A0000261600001E16000000800202D5
:10433C001F00000053504953442020205553422065
:10434C005370656369616C204469736B322E443021
:10435C000000000000000000010203040607080929
:10436C00000000000102030401020304060708090F
:10437C00000000001042000030420000F04100003C
:10438C000000000000000000000000000000000021
:10439C000000000000000000000000000000000011
:1043AC000000000000000000000000000000000001
:1043BC0000000000000000000000000000000000F1
:1043CC0000000000000000000000000000000000E1
:1043DC00C040000020000000E0400000120000007F
:1043EC00040100000100000000024000006CDC022F
:1043FC0002040608A8060020F000002004030904AB
:10440C000000003F00000200F0000020000000004F
:00000001FF
